:020000040000fa
:080000000002040000000000f2
:020000040000fa
:040008002c040000c4
:020000040000fa
:04000c002c040000c0
:020000040000fa
:040010002c040000bc
:020000040000fa
:040014002c040000b8
:020000040000fa
:040018002c040000b4
:020000040000fa
:04001c002c040000b0
:020000040000fa
:040020002c040000ac
:020000040000fa
:040024002c040000a8
:020000040000fa
:0400280002030000cf
:020000040000fa
:04002c002c040000a0
:020000040000fa
:040030002c0400009c
:020000040000fa
:040034005c03000069
:020000040000fa
:040038002c04000094
:020000040000fa
:04003c002c04000090
:020000040000fa
:040040002c0400008c
:020000040000fa
:040044002c04000088
:020000040000fa
:040048002c04000084
:020000040000fa
:04004c002c04000080
:020000040000fa
:040050002c0400007c
:020000040000fa
:040054002c04000078
:020000040000fa
:040058002c04000074
:020000040000fa
:04005c002c04000070
:020000040000fa
:040060002c0400006c
:020000040000fa
:040064002c04000068
:020000040000fa
:040068002c04000064
:020000040000fa
:04006c002c04000060
:020000040000fa
:040070002c0400005c
:020000040000fa
:040074002c04000058
:020000040000fa
:040078002003000061
:020000040000fa
:04007c002c04000050
:020000040000fa
:040080002c0400004c
:020000040000fa
:040084002c04000048
:020000040000fa
:040088002c04000044
:020000040000fa
:04008c002c04000040
:020000040000fa
:040090002c0400003c
:020000040000fa
:040094002c04000038
:020000040000fa
:040098002c04000034
:020000040000fa
:04009c003e0300001f
:020000040000fa
:0400a000d003000089
:020000040000fa
:0400a4007a030000db
:020000040000fa
:0400a8002c04000024
:020000040000fa
:0400ac002c04000020
:020000040000fa
:0400b0002c0400001c
:020000040000fa
:0400b4002c04000018
:020000040000fa
:0400b8002c04000014
:020000040000fa
:0400bc002c04000010
:020000040000fa
:0400c0002c0400000c
:020000040000fa
:0400c4002c04000008
:020000040000fa
:0400c8002c04000004
:020000040000fa
:0400cc002c04000000
:020000040000fa
:0400d0002c040000fc
:020000040000fa
:0400d4002c040000f8
:020000040000fa
:0400d8002c040000f4
:020000040000fa
:0400dc002c040000f0
:020000040000fa
:0400e0002c040000ec
:020000040000fa
:0400e4002c040000e8
:020000040000fa
:0400e8002c040000e4
:020000040000fa
:0400ec002c040000e0
:020000040000fa
:0400f0002c040000dc
:020000040000fa
:0400f4002c040000d8
:020000040000fa
:0400f8002c040000d4
:020000040000fa
:0400fc002c040000d0
:020000040000fa
:040100002c040000cb
:020000040000fa
:040104002c040000c7
:020000040000fa
:040108002c040000c3
:020000040000fa
:04010c002c040000bf
:020000040000fa
:040110002c040000bb
:020000040000fa
:040114002c040000b7
:020000040000fa
:040118002c040000b3
:020000040000fa
:04011c002c040000af
:020000040000fa
:040120002c040000ab
:020000040000fa
:040124002c040000a7
:020000040000fa
:040128002c040000a3
:020000040000fa
:04012c002c0400009f
:020000040000fa
:0401300016040000b1
:020000040000fa
:040134002c04000097
:020000040000fa
:040138002c04000093
:020000040000fa
:04013c002c0400008f
:020000040000fa
:040140002c0400008b
:020000040000fa
:040144002c04000087
:020000040000fa
:040148002c04000083
:020000040000fa
:04014c002c0400007f
:020000040000fa
:040150002c0400007b
:020000040000fa
:040154002c04000077
:020000040000fa
:040158002c04000073
:020000040000fa
:04015c002c0400006f
:020000040000fa
:040160002c0400006b
:020000040000fa
:040164002c04000067
:020000040000fa
:040168002c04000063
:020000040000fa
:04016c002c0400005f
:020000040000fa
:040170002c0400005b
:020000040000fa
:040174002c04000057
:020000040000fa
:040178002c04000053
:020000040000fa
:04017c002c0400004f
:020000040000fa
:040180002c0400004b
:020000040000fa
:040184002c04000047
:020000040000fa
:040188002c04000043
:020000040000fa
:04018c002c0400003f
:020000040000fa
:040190002c0400003b
:020000040000fa
:040194002c04000037
:020000040000fa
:040198002c04000033
:020000040000fa
:04019c002c0400002f
:020000040000fa
:0401a0002c0400002b
:020000040000fa
:0401a4002c04000027
:020000040000fa
:0401a8002c04000023
:020000040000fa
:0401ac002c0400001f
:020000040000fa
:0401b0002c0400001b
:020000040000fa
:0401b4002c04000017
:020000040000fa
:0401b8002c04000013
:020000040000fa
:0401bc002c0400000f
:020000040000fa
:0401c0002c0400000b
:020000040000fa
:0401c4002c04000007
:020000040000fa
:0401c8002c04000003
:020000040000fa
:0401cc002c040000ff
:020000040000fa
:0401d0002c040000fb
:020000040000fa
:0401d4002c040000f7
:020000040000fa
:0401d8002c040000f3
:020000040000fa
:0401dc002c040000ef
:020000040000fa
:0401e0002c040000eb
:020000040000fa
:0401e4002c040000e7
:020000040000fa
:0401e8002c040000e3
:020000040000fa
:0401ec002c040000df
:020000040000fa
:0401f0002c040000db
:020000040000fa
:0401f4002c040000d7
:020000040000fa
:0401f8002c040000d3
:020000040000fa
:0401fc002c040000cf
:020000040000fa
:040200002c040000ca
:020000040000fa
:040204002c040000c6
:020000040000fa
:040208002c040000c2
:020000040000fa
:04020c002c040000be
:020000040000fa
:040210002c040000ba
:020000040000fa
:040214002c040000b6
:020000040000fa
:040218002c040000b2
:020000040000fa
:04021c002c040000ae
:020000040000fa
:040220002c040000aa
:020000040000fa
:040224002c040000a6
:020000040000fa
:040228002c040000a2
:020000040000fa
:04022c002c0400009e
:020000040000fa
:040230002c0400009a
:020000040000fa
:040234002c04000096
:020000040000fa
:040238002c04000092
:020000040000fa
:04023c002c0400008e
:020000040000fa
:040240002c0400008a
:020000040000fa
:040244002c04000086
:020000040000fa
:040248002c04000082
:020000040000fa
:04024c002c0400007e
:020000040000fa
:040250002c0400007a
:020000040000fa
:040254002c04000076
:020000040000fa
:040258002c04000072
:020000040000fa
:04025c002c0400006e
:020000040000fa
:040260002c0400006a
:020000040000fa
:040264002c04000066
:020000040000fa
:040268002c04000062
:020000040000fa
:04026c002c0400005e
:020000040000fa
:040270002c0400005a
:020000040000fa
:040274002c04000056
:020000040000fa
:040278002c04000052
:020000040000fa
:04027c002c0400004e
:020000040000fa
:040280002c0400004a
:020000040000fa
:100400008f4d22000ec027000e0188000000000062
:10041000000020000000e000020032000001200087
:1004200020028800140007002e0107000000e000f1
:1004300003003a00a020260001002000020037003f
:100440000000200001002000810f70000100320038
:100450000f000700000020000000e0000200320052
:100460000000020000000000846c02000000000098
:100470000040da000000fe00607820000000e0008c
:1004800002003200002020009001880000000600d9
:10049000a1028800800478000000eb001f003700f4
:1004a000e284440054a0b4009905ba00e2844400f8
:1004b00054a0b4009906ba00e284440054a0b400e9
:1004c0000006eb00476fde00fd07b200ae018800ba
:1004d000636ce10003003a000ad801000000eb0061
:1004e0000e003700606ce10008003a00004deb00a0
:1004f0000a05e800020039003420ec000af0a000f0
:100500008b05e900f9ff3e00040037006168e10057
:10051000010032000086eb000b00070019c7ba008b
:100520000e04e0001905ba0003003a000a00e000da
:10053000dbff3a0000000600fe07b200ae028800b2
:100540008a047800f5ff37000cd0a300e20f4d00bd
:100550001c00390089027800354dba000a05e80010
:10056000020039003420ec000af0a0008b05e900fd
:100570000f003200254dba000a05e80002003900dc
:100580003420ec000af0a0008b05e90008003200de
:100590000c00e0000600320015cdba000a05e800a4
:1005a000020039003420ec000af0a0008b05e900bd
:1005b0008984e80054a0b4000b00e000e2ff3a0098
:1005c000000006009902ba00055d78008b05e9007d
:1005d000f7ff3200c82ade00055d78008b05e900d0
:1005e000f3ff32000c00e000f1ff320019ddba0029
:1005f000eeff3700ee5604000000000036610400f4
:10060000000000003600f800809fbe00829fbe0000
:10061000849fbe00869fbe000000fa000008a9006b
:100620004f2407000080fa004f03be004f02be00b7
:100630004f01be004f00be003600f900004006002a
:100640003600f800809fbe00829fbe00849fbe00df
:10065000869fbe000000fa000288a90093240700cc
:100660000080fa004f03be004f02be004f01be00e3
:100670004f00be003600f900004006003600f800ca
:10068000809fbe00829fbe00849fbe00869fbe00ea
:100690000000fa0003a8a900e32407000080fa0084
:1006a0004f03be004f02be004f01be004f00be0010
:1006b0003600f900004006003600f800809fbe00ba
:1006c000829fbe00849fbe00869fbe000000fa008d
:1006d0000068a9006c2307000080fa004f03be00e9
:1006e0004f02be004f01be004f00be003600f900b1
:1006f00000400600809fbe000000fa0011a58000a7
:1007000000202000008060000000e00002003200b5
:1007100023e8a9001f00370003e8a90018003700ec
:1007200000a58000104078000080fb00a011880028
:1007300000a580000000e80000a5880001a5800059
:10074000c04a2100808f500002003a00404a210038
:1007500000a5880010a580000080a10010a58800d9
:1007600001a58000f0a48000808f500004003a00b2
:1007700010a580000090a00010a58800050037009b
:100780009111800000202000008060000000e00047
:10079000e3ff32000080fa004f00be000040060078
:1007a000809fbe000000fa0018003700d0a480002f
:1007b000b11180008140780001487800d0a4800009
:1007c0000000e800d0a48800d1a48000404b2100a4
:1007d000808f500002003a00c04a2100d0a4880057
:1007e00010a580000010a10010a58800d1a48000f1
:1007f000e0a48000808f500004003a0010a5800023
:100800000000a00010a588000400370090118000af
:10081000610060000000e000e4ff3a0003c8a900a6
:100820000080fa004f00be0000400600801f7800e4
:100830000000fa0090118000620060000000e000fb
:10084000010032003222a9000848a9000080fa0005
:100850004f007800004006000040da000000fe0073
:10086000889fbe0080047800b0a680000000e000f1
:1008700004003a000e0007000084eb000000e000d6
:1008800008003500b8a680000900e000050032002d
:1008900009004400060007000000e00001003d00e0
:1008a0000084eb00080078004f04be000000060042
:1008b000800078000100e00003003a00804d210034
:1008c000b0a68800000005000080eb00824d2200e9
:1008d000828f500002003e00b1a688000000eb00ad
:1008e00000000600000005006022b800060220009b
:1008f0000000d0008180d2000482d2008582d20024
:100900000000a0000202520083825a00030031005e
:100910000202420083824a000000a1000603e900af
:10092000f3ff3a0000000600efff07000400be00de
:10093000000006000000e0002f003200c001780037
:10094000e38f51002c0036000308a3002a003a0070
:1009500091a680000100e00002003200810f5000eb
:10096000040031001100980090a68800160037009e
:1009700082007800110190000200e00002003200c5
:10098000800f5100faff3900110278008482400084
:10099000850f500018003900808f520003003a0084
:1009a0008308420001007800070037000200e000e1
:1009b0000300320083014000830f51000e00390014
:1009c0001200980090009800900090000100e00054
:1009d0000900320010014000828f500006003a00ea
:1009e000024d21000009eb001001780011084100c0
:1009f000910090001100980000000600889fbe0042
:100a00000004780081a680000100e00002003200ae
:100a1000010078000d00370091a68000204d2100d4
:100a200004003700910f5400250036000180e800d3
:100a3000910090000100e000faff3a00100037003a
:100a4000920f54001e0036000280e800100178006a
:100a50000200e000faff3a001101780091a6800040
:100a6000204d210004003700910f5400140036007f
:100a70000180e80091009000828f5000faff3a0058
:100a8000a9a68000888f54000100310088047800f6
:100a9000090078004a0007000000e00004003a0066
:100aa000888f5400050032008904d100f5ff37001b
:100ab000091878009fff0700d2ff37000000eb0005
:100ac0004f04be0000000600881f78006304400049
:100ad0000800a1008000eb00800f540021003600c8
:100ae000e30f540001003e00480020000800780099
:100af000c2ff07008000eb000000e0001900320098
:100b0000900078009101780064815100880f5100b5
:100b1000030031001101900002087800070037003f
:100b200008814000020878009101900013019800ac
:100b3000100178001109140088087800100178006d
:100b40000000eb000200e00004003200920190007f
:100b50000300e000010032000280e80080a6880067
:100b60008180e800010078004f0478000000060052
:100b70008001780002003700b15978000201e900d5
:100b80000200e000fcff3a0000000600800178004f
:100b900002003700815978000201e9000200e000fc
:100ba000fcff3a0000000600800078000101780098
:100bb0003104e000fdff3a00000051000000060093
:100bc000800078000000eb000100e0000500340028
:100bd0000100780022ff0700e10f400001003a0009
:080be0000000eb00000006001c
:020000040000fa
:100be80005000000080000000700000007000000e2
:100bf800200000000700000007000000200000009f
:100c080007000000070000002000000007000000a7
:100c18000700000020000000070000000700000097
:100c2800200000000700000007000000200000006e
:100c38000700000007000000200000000700000077
:100c48000700000020000000070000004f750000aa
:100c58007470000075740000206d00006170000061
:100c6800706900006e67000020300000005300002b
:100c780075620000496e000064650000782000007d
:100c88003030000031000000537500006249000058
:100c98006e640000657800002030000030320000eb
:100ca8000053000075620000496e00006465000092
:100cb8007820000030300000330000005375000039
:100cc800624900006e640000657800002030000072
:100cd800303400000053000075620000496e0000c7
:100ce8006465000078200000303000003500000006
:100cf80053750000624900006e64000065780000ca
:100d080020300000303600000053000075620000fb
:100d1800496e000064650000782000003030000053
:100d28003700000053750000624900006e6400003f
:100d380065780000203000003038000000ff000017
:100d48000000000005000000080000000700000087
:100d58000700000020000000070000000700000056
:100d68002000000007000000756100007274000098
:100d78005f6900006e70000075740000207000004c
:100d8800726f000063650000737300002064000048
:100d980061740000612000006d6100007070000047
:100da800696e00006700000053750000624900008a
:100db8006e640000657800002030000030310000cb
:100dc8000053000075620000496e00006465000071
:100dd800782000003030000032000000ff000000e2
:100de80005000000080000000700000007000000e0
:100df800200000000700000007000000200000009d
:100e080007000000070000002000000007000000a5
:100e180075610000727400005f7300007461000067
:100e28007475000073200000707200006f6300008a
:100e380065730000732000006461000074610000a5
:100e4800206d000061700000706900006e6700008e
:100e58000053000075620000496e000064650000e0
:100e68007820000030300000310000005375000089
:100e7800624900006e6400006578000020300000c0
:100e8800303200000053000075620000496e000017
:100e98006465000078200000303000003300000056
:100ea800ff00000005000000080000000700000027
:100eb8000600000010000000070000005379000041
:100ec8006e6300004d6100006e6100006765000000
:100ed8007220000032200000617300007369000076
:100ee800676e00006d6500006e74000000ff000072
:100ef80000000000050000000800000007000000d6
:100f080006000000100000000700000053790000f0
:100f18006e6300004d6100006e61000067650000af
:100f28007220000033200000617300007369000024
:100f3800676e00006d6500006e74000000ff000021
:100f48000000000005000000080000000700000085
:100f580005000000080000008700000000000000f5
:100f68000800000080000000756100007274000035
:100f78005f6900006e700000757400000075000065
:100f880061720000745f0000726500006164000017
:100f98005f62000075660000666500007200000070
:100fa80000ff00000000000005000000080000002d
:100fb8000700000001000000010000008700000099
:100fc8000000000000000000000000000000000019
:100fd800070000008000000000000000080000007a
:100fe8008000000075610000727400005f730000eb
:100ff80074610000747500007300000072780000ce
:101008005f72000065610000647900000000000064
:1010180000000000ff0000000500000008000000bc
:101028000700000005000000080000007f00000025
:10103800000000000800000040000000756100008a
:10104800727400005f6f0000757400007075000016
:101058007400000075610000727400005f77000082
:1010680072690000746500005f6200007566000028
:10107800666500007200000000ff0000000000002c
:10108800050000000800000007000000070000003d
:10109800200000007f00000005000000080000009c
:1010a8007f00000001000000010000007f00000038
:1010b80001000000010000004700000001000000de
:1010c800010000007f000000000000000500000093
:1010d80040000000636f00006e6600006967000052
:1010e80075720000655f0000756100007274000091
:1010f8000062000075610000647200006174000005
:1011080065000000706100007269000074790000d9
:10111800206100006e64000020640000617400001b
:1011280061200000736500006c65000063740000b6
:10113800696f00006e20000062690000747300008f
:10114800006500006e610000626c00006520000010
:10115800756100007274000000740000785f000080
:10116800726500006164000079000000737400007b
:101178006f70000020730000656c0000656300005c
:10118800746900006f6e000020620000697400003e
:1011980000000000ff000000070000002000000021
:1011a80007000000446500007669000063650000e0
:1011b8002074000079700000650000000500000040
:1011c800080000000700000045720000726f000070
:1011d80072200000726500006769000073740000e7
:1011e800657200000000000009000000b000000067
:1011f8000700000044650000766900006365000090
:10120800206e0000616d000065000000090000000c
:101218000800000007000000486100007264000038
:10122800776100007265000020760000657200009a
:10123800736900006f6e00000000000009000000e4
:101248000800000007000000536f000066740000eb
:10125800776100007265000020760000657200006a
:10126800736900006f6e00000000000005000000b8
:101278000800000007000000070000002000000030
:101288000700000007000000200000000700000021
:101298000700000020000000070000000700000011
:1012a800200000000700000049640000656e00008f
:1012b800746900007479000000560000656e000033
:1012c800646f0000722000004944000000500000d4
:1012d800726f0000647500006374000020630000f2
:1012e8006f64000065000000526500007669000028
:1012f800736900006f6e0000005300006572000003
:10130800696100006c2000006e7500006d620000cd
:101318006572000000ff00000000000005000000ea
:10132800080000000700000007000000200000007f
:101338003f00000006000000100000003f00000011
:1013480045720000726f00007220000053650000b3
:1013580074740000696e000067730000004c0000a0
:101368006f630000616c000020450000727200008d
:101378006f72000020520000656100006374000075
:10138800696f00006e000000537900006e63000072
:1013980020450000727200006f72000020430000b8
:1013a8006f7500006e74000065720000204c00002c
:1013b800696d00006974000000ff00000000000073
:1013c8001b00000040000000bf000000546900003e
:1013d8006d65000073740000616d000070200000ee
:1013e8004f6200006a6500006374000000ff00009f
:1013f80000000000050000000800000007000000d1
:1014080005000000080000000700000053790000f4
:101418006e630000206d0000616e000061670000cf
:1014280065720000207400007970000065000000fb
:10143800050000000800000007000000060000008a
:10144800100000000f00000007000000200000004e
:10145800070000000000000020000000000000005d
:101468000600000010000000070000000700000050
:101478002000000007000000070000002000000016
:10148800070000000000000020000000000000002d
:1014980006000000100000003f00000007000000e8
:1014a80020000000070000000700000020000000e6
:1014b8003f000000060000001000000007000000c8
:1014c80006000000100000000700000000000000f7
:1014d80010000000000000000000000010000000e4
:1014e80000000000000000002000000000000000d4
:1014f80000000000200000000000000000000000c4
:101508002000000000000000000000002000000093
:1015180000000000000000000000000000000000c3
:1015280000000000000000000000000000000000b3
:1015380000000000000000000000000000000000a3
:101548000000000000000000000000000000000093
:101558000000000000000000000000000000000083
:101568000000000000000000000000000000000073
:101578000000000000000000000000000000000063
:101588000000000000000000000000000000000053
:101598000000000000000000000000000000000043
:1015a8000000000000000000000000000000000033
:1015b800010000000100000007000000534d00007a
:1015c800206f000075740000707500007420000022
:1015d80070610000726100006d65000074650000b4
:1015e80072000000537900006e630000687200000a
:1015f8006f6e0000697a000061740000696f000076
:101608006e2000005479000070650000004300005f
:10161800796300006c65000020540000696d0000cb
:101628006500000000530000796e00006368000048
:10163800726f00006e6900007a6100007469000032
:101648006f6e000020540000797000006573000080
:101658002073000075700000706f00007274000045
:1016680065640000004d0000696e0000696d0000af
:10167800756d000020430000796300006c65000070
:1016880020540000696d00006500000043610000ff
:101698006c630000206100006e64000020430000bd
:1016a8006f70000079200000546900006d6500002b
:1016b8000000000047650000742000004379000026
:1016c800636c000065200000546900006d6500002f
:1016d80000440000656c000061790000205400009f
:1016e800696d000065000000537900006e6300001a
:1016f8003020000043790000636c00006520000082
:10170800546900006d650000005300004d2d000075
:1017180045760000656e0000742000004d690000e9
:1017280073730000656400000043000079630000e3
:101738006c65000020540000696d00006520000001
:10174800546f00006f200000536d0000616c0000b2
:101758006c000000536800006966000074200000f7
:10176800546900006d650000205400006f6f000090
:1017780020530000686f0000727400000000000031
:101788000000000000000000000000000000000051
:101798000000000000000000000000000000000041
:1017a80000530000796e00006320000045720000bd
:1017b800726f000072000000ff000000534d00002f
:1017c800206900006e700000757400002070000031
:1017d80061720000616d00006574000065720000b0
:1017e80000530000796e000063680000726f00000b
:1017f8006e6900007a610000746900006f6e000075
:101808002054000079700000650000004379000052
:10181800636c000065200000546900006d650000dd
:1018280000000000537900006e6300006872000039
:101838006f6e0000697a000061740000696f000033
:101848006e200000547900007065000073200000cd
:1018580073750000707000006f72000074650000fe
:10186800640000004d6900006e6900006d7500009d
:101878006d20000043790000636c000065200000c3
:10188800546900006d65000000430000616c0000b1
:1018980063200000616e000064200000436f0000b8
:1018a8007079000020540000696d00006500000098
:1018b80000470000657400002043000079630000c1
:1018c8006c65000020540000696d00006500000090
:1018d800446500006c610000792000005469000034
:1018e8006d65000000530000796e00006330000051
:1018f80020430000796300006c650000205400005c
:10190800696d000065000000534d00002d45000082
:10191800766500006e740000204d000069730000b9
:10192800736500006400000043790000636c0000e8
:1019380065200000546900006d6500002054000017
:101948006f6f0000205300006d6100006c6c000098
:10195800005300006869000066740000205400000d
:10196800696d000065200000546f00006f200000c2
:10197800536800006f72000074000000000000004f
:10198800000000000000000000000000000000004f
:10199800000000000000000000000000000000003f
:1019a800537900006e630000204500007272000049
:1019b8006f72000000ff000000000000000000003f
:1019c8000000000000000000030500000000000007
:1019d80004050000010000000405000005000000e7
:1019e80004050000000000000106000001000000de
:1019f80001060000020000000106000000000000cf
:101a08000206000041000000040600004200000039
:101a18000406000043000000040600004700000020
:101a28000406000000000000060600001000000088
:101a3800070600001200000007060000130000005f
:101a48000706000011000000090600003000000031
:101a580009060000310000000906000032000000fd
:101a680009060000330000000906000036000000e7
:101a78000906000000000000000800002000000027
:101a880000080000210000000008000022000000fb
:101a98000008000023000000000800000300000008
:101aa800010600000400000001060000000000001c
:101ab8000100000003000000070000000f00000004
:101ac8001f0000003f0000007f000000ff00000032
:101ad800ff010000ff030000ff070000ff0f0000e8
:0c1ae800ff1f0000ff3f0000ff7f000018
:020000040000fa
:101af4000600fa00200798006000b800008fbe00be
:101b04000e0078004200200041202000272c07000e
:101b14002e0090006101b8001e0078009e00900025
:101b24000202780003017800800178000100780047
:101b340003026200000061008000eb00c000dd00d1
:101b4400000020000001be006120b8000001710007
:101b540081817100028fbe00722e0700b087880059
:101b6400c18788000e007800420020004120200038
:101b7400942c0700b0878000c18780005c2e07008a
:101b84000080fa00000006000600fa002007980012
:101b94006000b800008fbe000e00780042002000f4
:101ba40041202000012c07002e0090006101b800a4
:101bb4001e0078009e00900000007100818071007a
:101bc400008fbe00572e0700b0878800c1878800a9
:101bd4000e0078004200200041202000792c0700ec
:101be400b0878000c1878000412e07000080fa0082
:101bf400000006000400fa006000b800008fbe0078
:101c04000e0078004200200001502000e72b07005e
:101c14001e0078009e009000008fbe001e01780018
:101c24009e01900000002000018020000202780044
:101c3400030178008001780001007800030262004b
:101c4400000061008000eb00c000dd000000200007
:101c54000001be006120b8000001710081817100a3
:101c6400e00f5100e08f590014003a001e01780083
:101c74009e01900000002000010021000202780073
:101c840003017800800178000100780003026200fb
:101c9400000061008000eb00c000dd0000002000b7
:101ca4000001be006120b800000171008181710053
:101cb400e00f5100e08f5900020032004e70ef0037
:101cc4000200370010c0b3004ef0b7000080fa00e5
:101cd400000006000200fa00004f78001e80fb009e
:101ce4000010b0004300dd00800078006004210093
:101cf40082002000ad2b0700600421000080fa0060
:101d0400000006000800fa00604798000000200068
:101d14000110200010079800210798006e409000e1
:101d24000080fb00c300dd004080200000804000f4
:101d3400000f78000e80e800420020009e0078002a
:101d4400202c07000e80e800420020009e0078004e
:101d5400962b07001e019000ae01900000002000a9
:101d6400011020000202780003017800800178004d
:101d74000100780003026200000061008000eb00b3
:101d8400c000dd00000020000001be006120b8009a
:101d94000001710081817100e00f5100e08f590052
:101da400e8ff32000080fa00000006000800fa0094
:101db400604798006000b800100798002107980059
:101dc4006e4090000080fb00c300dd0040802000d6
:101dd40000804000000f78000e80e80042002000e0
:101de4009e007800f72b07000e80e80042002000d8
:101df4009e0078006d2b07001e019000ae0190003c
:101e04000000200001102000020278000301780085
:101e14008001780001007800030262000000610084
:101e24008000eb00c000dd00000020000001be00c7
:101e34006120b8000001710081817100e00f510040
:101e4400e08f5900e8ff3a000080fa000000060025
:101e54000a00fa00004f98000040eb001047980079
:101e64000000eb00100798000000eb00200798002a
:101e740091818000e0ff2100808f50000c0036002b
:101e840091818000e0ff2100808f5000080036001f
:101e940091818000e0ff2100808f50000400360013
:101ea40091818000e0ff2100808f500002003e00fd
:101eb40040c1b300580237000040eb0085ff070023
:101ec400300798003e0090009000900010007800c9
:101ed4004008de00100798003e009000900090003b
:101ee40010007800200798003e0090002001900028
:101ef400b0019000000020001100200002027800d0
:101f04000301780080017800010078000302620078
:101f1400000061008000eb00c000dd000000200034
:101f24000001be006120b8000001710081817100d0
:101f3400e00f5100e08f590003003a0060c1b30084
:101f4400104798004d0037003e009000200190009b
:101f5400b0019000c00020000100200002027800bf
:101f64000301780080017800010078000302620018
:101f7400000061008000eb00c000dd0000002000d4
:101f84000001be006120b800000171008181710070
:101f94004000200001002000800f5100818f590073
:101fa4000300320060c1b3001047980033003700cb
:101fb4003e00900020019000b0019000200020001d
:101fc40001002000020278000301780080017800fb
:101fd4000100780003026200000061008000eb0051
:101fe400c000dd00000020000001be006120b80038
:101ff4000001710081817100e00f5100e08f5900f0
:1020040003003a0060c1b300104798001b0037007a
:102014009e00900010022000808f500003003e00bc
:1020240060c1b30010479800140037009e00900070
:1020340000102000808f50000300360060c1b30000
:10204400104798000d003700ae009000f0ff20000c
:10205400808f500003003e0060c1b3001047980019
:1020640006003700ae009000f0ff2100808f500082
:102074000200360060c1b300104798001e40900073
:102084000004e0006f003a0010c0b30011ff070025
:10209400300798003e0090009000900010007800f7
:1020a4004008de00100798003e0090009000900069
:1020b40010007800200798003e0090002001900056
:1020c400b0019000000020001100200002027800fe
:1020d40003017800800178000100780003026200a7
:1020e400000061008000eb00c000dd000000200063
:1020f4000001be006120b8000001710081817100ff
:10210400e00f5100e08f590003003a0060c1b300b2
:10211400104798004b0037003e00900020019000cb
:10212400b0019000c00020000100200002027800ed
:102134000301780080017800010078000302620046
:10214400000061008000eb00c000dd000000200002
:102154000001be006120b80000017100818171009e
:10216400e00f5100e08f59000300320060c1b3005a
:1021740010479800330037003e0090002001900083
:10218400b00190002000200001002000020278002d
:1021940003017800800178000100780003026200e6
:1021a400000061008000eb00c000dd0000002000a2
:1021b4000001be006120b80000017100818171003e
:1021c400e00f5100e08f590003003a0060c1b300f2
:1021d400104798001b0037009e009000100220005a
:1021e400808f500003003e0060c1b3001047980088
:1021f400140037009e00900000102000808f5000d3
:102204000300360060c1b300104798000d0037008a
:10221400ae009000f0ff2000808f500003003e00cd
:1022240060c1b3001047980006003700ae0090006c
:10223400f0ff2100808f50000200360060c1b3001f
:10224400104798001e4090000004e000a1003a00ee
:102254000e489000e34f50009e00360010c0b300bb
:1022640022f0b70030c0b3009afe07003007980090
:102274003e00900090009000100078004008de00be
:10228400100798003e009000900090001000780025
:10229400200798003e00900020019000b0019000bb
:1022a40000002000110020000202780003017800e1
:1022b40080017800010078000302620000006100e0
:1022c4008000eb00c000dd00000020000001be0023
:1022d4006120b8000001710081817100e00f51009c
:1022e400e08f5900060032001e0090000000e0005c
:1022f40003003a0040c0b300104798007000370054
:102304003e00900020019000b001900000002000e9
:102314001100200002027800030178008001780097
:102324000100780003026200000061008000eb00fd
:10233400c000dd00000020000001be006120b800e4
:102344000001710081817100e00f5100e08f59009c
:1023540053003200608180009e009000808f500006
:1023640007003a00608180000000e00004003200b1
:102374009e00900040042000808f5000030036002f
:1023840030c0b300104798004d0037003e00900065
:1023940020019000b0019000c00020000100200046
:1023a40002027800030178008001780001007800bf
:1023b40003026200000061008000eb00c000dd0049
:1023c400000020000001be006120b800000171007f
:1023d40081817100e00f5100e08f59002d003a0017
:1023e40034d0bf00e24f500008003a00ae00900025
:1023f400f0ff2000808f500004003600ae009000f3
:10240400f0ff2100808f50000700360034d0bf0059
:10241400e24f50001c003200d0818000ae009000da
:10242400808f500018003a003e0090002001900078
:10243400b00190002000200001002000020278007a
:102444000301780080017800010078000302620033
:10245400000061008000eb00c000dd0000002000ef
:102464000001be006120b80000017100818171008b
:10247400e00f5100e08f5900010032002270ef009c
:10248400000000000e00370020c0b3001047980081
:102494000b00370040c0b300104798000800370015
:1024a4001e0090000000e00003003a0060818000fc
:1024b4000000e0000200320030c0b3001047980072
:1024c4001e4090000004e00002003200e0c1b300ae
:1024d400104798001e4090000004e000ba003a0043
:1024e4000e489000e24f5000b700360020c0b30001
:1024f400f8fd0700300798003e009000900090001f
:10250400100078004008de00100798003e0090009c
:102514009000900010007800200798003e00900082
:1025240020019000b0019000000020001100200064
:10253400020278000301780080017800010078002d
:1025440003026200000061008000eb00c000dd00b7
:10255400000020000001be006120b80000017100ed
:1025640081817100e00f5100e08f590006003200b4
:102574001e0090000000e00003003a0040c0b300d9
:10258400104798008b0037003e0090002001900017
:10259400b001900000002000110020000202780029
:1025a40003017800800178000100780003026200d2
:1025b400000061008000eb00c000dd00000020008e
:1025c4000001be006120b80000017100818171002a
:1025d400e00f5100e08f59006e00320070818000de
:1025e4009e009000808f500067003a007081800048
:1025f4000000e000640032009e00900040042000cf
:10260400808f500060003e003e009000200190004a
:10261400b0019000c00020000100200002027800f8
:102624000301780080017800010078000302620051
:10263400000061008000eb00c000dd00000020000d
:102644000001be006120b8000001710081817100a9
:102654004000200001002000800f5100818f5900ac
:1026640046003a0034d0bf00e24f500008003a0060
:10267400ae009000f0ff2000808f50000400360070
:10268400ae009000f0ff2100808f5000070036005c
:1026940034d0bf00e24f500035003200c0818000ca
:1026a400ae009000808f500031003a003e00900050
:1026b40020019000b00190000004200001002000df
:1026c400020278000301780080017800010078009c
:1026d40003026200000061008000eb00c000dd0026
:1026e400000020000001be006120b800000171005c
:1026f40081817100e00f5100e08f59000300320026
:1027040010c0b30003f0b700010037000370ef00fe
:102714003e00900020019000b001900020002000b5
:102724000100200002027800030178008001780093
:102734000100780003026200000061008000eb00e9
:10274400c000dd00000020000001be006120b800d0
:102754000001710081817100e00f5100e08f590088
:10276400010032002270ef00000000001100370069
:1027740020c0b300104798000e00370040c0b300db
:10278400104798000b00370030c0b3001047980082
:10279400080037001e0090000000e00003003a002b
:1027a400708180000000e0000200320030c0b300fd
:1027b400104798001e4090000004e0000200320020
:1027c400d0c1b300104798001e4090000004e00000
:1027d40010003a008e489000014f7800090037003d
:1027e4001e4078003bfd0700300798003e00900033
:1027f400b0009000200090001082880021828800a0
:102804001e4fe80030d0bf009e40780080cf5000bb
:10281400f3ff39001e4090000080fa00000006001b
:102824003a00fa000000eb00500798000000eb00ab
:10283400600798006000b80050179800611798006e
:102844006000b80070179800011f98000040eb006a
:10285400004f78003000200010079800300020005e
:10286400200798000000eb00300798000000eb0000
:10287400400798000080eb0070079800909d80004e
:10288400fe0090000080600070079800809f800028
:10289400fe00900000806000700798003c30ef005c
:1028a4000270ef0020c0b3000afd0700000f98007b
:1028b4000e0890009000900010007800000078004e
:1028c400c08188000e08900020019000b0019000a3
:1028d400200020000100200002027800030178009b
:1028e40080017800010078000302620000006100aa
:1028f4008000eb00c000dd00000020000001be00ed
:102904006120b8000001710081817100e00f510065
:10291400e08f5900020032001000200020079800c8
:1029240030c0b300ebfc0700000f98000e089000c5
:10293400900090001000780000007800d08188009a
:102944000e08900020019000b001900020002000ab
:102954000100200002027800030178008001780061
:102964000100780003026200000061008000eb00b7
:10297400c000dd00000020000001be006120b8009e
:102984000001710081817100e00f5100e08f590056
:1029940002003200100020001007980061818000be
:1029a4001e0090008088b90080007800d0818000eb
:1029b4008080400050868000808f500006003600e2
:1029c400518680002086800080804000d081800075
:1029d400808f50000f003e00618180001e00900037
:1029e4008088b90080007800d08180008080400019
:1029f40040868000808f50000800360041868000a9
:102a04003086800080804000d0818000808f50001c
:102a140002003600e0012000a90337007181800024
:102a24002e0090008088b90080007800c08180006a
:102a34008080400050868000808f50000600360061
:102a4400518680002086800080804000c081800004
:102a5400808f50001e003e00718180002e00900087
:102a64008088b90080007800c081800080804000a8
:102a740040868000808f500006003600418680002a
:102a84003086800080804000c0818000808f5000ac
:102a94000f003e00718180002e0090008088b900f4
:102aa40080007800c081800080804000d081800058
:102ab400808f500008003600d18180006081800042
:102ac40080804000c0818000808f5000020036006a
:102ad400d00120007a033700600220000e0040007d
:102ae4004200200001982000302807003e1090008a
:102af400ce10900030179800411798003e119000b6
:102b0400ce119000f0ff2f00010020000202780097
:102b1400030178008001780001007800030262005c
:102b2400000061008000eb00c000dd000000200018
:102b34000001be006120b8000001710081817100b4
:102b44003217980043179800a00220000e0040009e
:102b540042002000019a2000142807005e10900013
:102b6400ee1090005017980061179800e0022000c2
:102b74000e00400042002000419a20000b2807006c
:102b84007e1090008e18900070179800011f980016
:102b9400419d800031079800329f800042079800d1
:102ba4003e119000ce119000009020000100200002
:102bb40002027800030178008001780001007800a7
:102bc40003026200000061008000eb00c000dd0031
:102bd400000020000001be006120b8000001710067
:102be40081817100e00f5100e08f5900d100320063
:102bf4003e119000ce1190000060200001002000e2
:102c04000202780003017800800178000100780056
:102c140003026200000061008000eb00c000dd00e0
:102c2400000020000001be006120b8000001710016
:102c340081817100e00f5100e08f590002003a00d9
:102c4400000320001e0337003e119000ce119000b7
:102c54000020200001002000020278000301780017
:102c64008001780001007800030262000000610026
:102c74008000eb00c000dd00000020000001be0069
:102c84006120b8000001710081817100e00f5100e2
:102c9400e08f590016003a003e119000ce119000ca
:102ca40000402000010020000202780003017800a7
:102cb40080017800010078000302620000006100d6
:102cc4008000eb00c000dd00000020000001be0019
:102cd4006120b8000001710081817100e00f510092
:102ce400e08f59000200320000032000f402370094
:102cf4007e0090000000e000320032007e00900070
:102d0400640060000000e00014003a003e119000ee
:102d1400ce11900000202000010020000202780063
:102d2400030178008001780001007800030262004a
:102d3400000061008000eb00c000dd000000200006
:102d44000001be006120b8000001710081817100a2
:102d5400e00f5100e08f590018003a007e00900007
:102d6400680060000000e00016003a003e11900088
:102d7400ce119000004020000100200002027800e3
:102d840003017800800178000100780003026200ea
:102d9400000061008000eb00c000dd0000002000a6
:102da4000001be006120b800000171008181710042
:102db400e00f5100e08f59000200320000032000b0
:102dc400bf023700006a280011002000100f98008d
:102dd400210f9800a29d8000b39d8000120f9800df
:102de400230f98005e109000ee109000e00f50004a
:102df400e08f5800100032005e119000ee11900038
:102e04001e089000ae089000800f5100818f590079
:102e1400070039005e119000ee11900000002000c0
:102e240001352c00800f5100818f590002003600bb
:102e340060032000a20237003e119000ce119000e2
:102e44000020200001002000020278000301780025
:102e54008001780001007800030262000000610034
:102e64008000eb00c000dd00000020000001be0077
:102e74006120b8000001710081817100e00f5100f0
:102e8400e08f5900220032003e119000ce119000d4
:102e940000402000010020000202780003017800b5
:102ea40080017800010078000302620000006100e4
:102eb4008000eb00c000dd00000020000001be0027
:102ec4006120b8000001710081817100e00f5100a0
:102ed400e08f59000e0032007e1090008e18900092
:102ee400e00f5000e08f5800090032007e1190007e
:102ef4008e1990005e109000ee109000800f51002b
:102f0400818f59000200390010c0b300004f7800cf
:102f14001e4078000004e000060032007e009000ad
:102f2400700060000000e00002003a00000320008e
:102f340063023700fed0bf000004e0005a003200f4
:102f44003e119000ce11900000902000010020005e
:102f54000202780003017800800178000100780003
:102f640003026200000061008000eb00c000dd008d
:102f7400000020000001be006120b80000017100c3
:102f840081817100e00f5100e08f59000e003a007a
:102f94003e009000e20f5000090032003e00900015
:102fa400e30f5000060032004e009000e20f500084
:102fb400030032004e009000e30f500096003a00e8
:102fc400000320003e0237003e119000ce11900015
:102fd4000040200001002000020278000301780074
:102fe40080017800010078000302620000006100a3
:102ff4008000eb00c000dd00000020000001be00e6
:103004006120b8000001710081817100e00f51005e
:10301400e08f590008003a003e009000e30f500092
:10302400030032004e009000e30f500002003a000b
:1030340000032000220237003e119000ce119000c0
:103044000020200001002000020278000301780023
:103054008001780001007800030262000000610032
:103064008000eb00c000dd00000020000001be0075
:103074006120b8000001710081817100e00f5100ee
:10308400e08f590064003a003e009000e20f5000c7
:10309400030032004e009000e20f50005e003a0040
:1030a40000032000060237003e119000ce1190006c
:1030b4000090200001002000020278000301780043
:1030c40080017800010078000302620000006100c2
:1030d4008000eb00c000dd00000020000001be0005
:1030e4006120b8000001710081817100e00f51007e
:1030f400e08f59001b003a00708180000000e0005e
:103104000b0032001000200030079800608180001e
:103114000000e00003003200200220004007980075
:103124003d0037000000eb00400798003a003700ec
:10313400608180000000e000050032000000eb0028
:103144003007980010002000400798003200370034
:103154000000eb00300798000000eb0040079800e7
:103164002d003700708180000000e000090032006b
:103174001e4078000004e00003003200300020000c
:103184003007980005003700200020003007980021
:10319400020037000000eb003007980060818000d7
:1031a4000000e0001a0032003e119000ce119000a1
:1031b4000040200001002000020278000301780092
:1031c40080017800010078000302620000006100c1
:1031d4008000eb00c000dd00000020000001be0004
:1031e4006120b8000001710081817100e00f51007d
:1031f400e08f59000300320030002000400798009f
:103204000500370020002000400798000200370026
:103214000000eb00400798003e009000e30f5000d0
:1032240011003a005e109000ee109000309e88006d
:10323400419e88005e109000ee109000509d880022
:10324400619d88005e109000ee10900020a0880020
:1032540031a088005e109000ee109000409f88001e
:10326400519f8800130037003e009000e20f500089
:1032740010003a005e109000ee109000309e88001e
:10328400419e88005e109000ee109000509d8800d2
:10329400619d88005e109000ee10900020a08800d0
:1032a40031a088005e109000ee109000409f8800ce
:1032b400519f880022d0bf000004e00008003a00bb
:1032c4003e0090000000e000030032004e00900039
:1032d4000000e00002003a0090022000780137006c
:1032e4003e0090000000e00003003a004e00900011
:1032f4000000e0000200320010c0b30021f0b7006b
:1033040021d0bf000004e0000b0032007081800077
:103314000000e0000300320000402000e08188004b
:1033240005003700608180000000e00002003200e8
:1033340000802000e08188003e009000e20f5000f1
:10334400090032003e009000e30f500006003200f6
:103354004e009000e20f5000030032004e00900037
:10336400e30f500006003a0010c0b30004f0b700a9
:10337400708180000000e00001003a003c30ef0062
:10338400be019000439d88004e029000349f880047
:103394001c30ef001e30ef000c30ef000a30ef005d
:1033a4001e407800e14f50003d003a007e1190002d
:1033b4008e1990005e109000ee1090000200400004
:1033c40083804800300f9800410f98007e119000d0
:1033d4008e1990005e109000ee109000800f510046
:1033e400818f5900160039005e109000ee10900095
:1033f4000001be003e089000ce08900039f5070099
:1034040000007800608088005e109000ee1090004c
:103414003e0a9000ce0a90000001be000400be00e7
:1034240040f50700e00f5000e08f580006003a0016
:10343400608080000000e80060808800020037009f
:1034440010002000608088005e109000ee10900054
:103454000001be003e089000ce08900021f5070050
:1034640000007800e08088005e109000ee1090006c
:103474003e0a9000ce0a90000001be000400be0087
:1034840028f50700e00f5000e08f58000e003200ce
:10349400e08080000000e800e08088000a00370037
:1034a4003e009000e20f500002003a00100020009d
:1034b400608088004e009000e30f5000020032004c
:1034c40010002000e08088000031ef006000b800a8
:1034d400101f9800211f9800200320000e004000b8
:1034e4004200200001422000b02507001e18900071
:1034f400ae18900060079800708180000000e00022
:10350400400032006e0090000000e0003d003200f8
:103514006000b800301f9800411f9800600320002d
:103524000e00400042002000014020009f250700bb
:103534003e189000ce189000301f9800411f98004c
:103544003e189000ce189000500798005e0090003e
:103554000000e000270032005e0090000080e800d8
:103564008000eb00500f9800610f98006e009000ef
:103574008000eb006e0990008091b900de09900094
:10358400819ab9008401780003014100de099000aa
:103594000018b8000101410082007800500f980023
:1035a400610f9800500f9800610f98005e09900019
:1035b400ee099000701a260001002000020040006d
:1035c40083804800500f9800610f98005e089000b7
:1035d400ee089000821a260003002000c1f40700c0
:1035e400500f9800610f98005e089000b081880029
:1035f400070037000000eb00600798003630ef004a
:10360400030037000000eb00500798003630ef004d
:10361400b08180000000e00003003a0003d0bf0046
:103624000004e00006003a00b08180000000e000e1
:103634000500320003d0bf000004e00002003a009d
:10364400f00120009e00370021d0bf000004e000fc
:1036540006003200708180000000e00003003200a8
:10366400e081800000a0a000e08188001630ef0017
:103674001430ef001830ef001a30ef000870ef003c
:103684000e70ef001030ef000000eb0040a0880047
:103694000000eb0050a08800004221008040eb00b5
:1036a400014878000000eb00509e88000000eb0009
:1036b400609e8800203e21008040eb000148780095
:1036c4003e119000ce119000002020000100200047
:1036d400020278000301780080017800010078007c
:1036e40003026200000061008000eb00c000dd0006
:1036f400000020000001be006120b800000171003c
:1037040081817100e00f5100e08f590060003200a8
:103714005e109000ee109000e00f5000e08f580013
:1037240002003a001630ef00180037005e109000d7
:10373400ee109000026a28001300200069f40700cc
:10374400700f9800011798007e0990008e11900068
:103754004000200001002000800f5100818f59009b
:1037640003003e0010002000b080880007003700ee
:103774007e0890000000400080007800d0cc2c002f
:103784000008b8004308de00b08088003e119000b5
:10379400ce119000004020000100200002027800b9
:1037a40003017800800178000100780003026200c0
:1037b400000061008000eb00c000dd00000020007c
:1037c4000001be006120b800000171008181710018
:1037d400e00f5100e08f59002d0032007e1190005f
:1037e4008e1990005e109000ee109000800f510032
:1037f400818f590003003100b0808000d0808800a0
:10380400230037007e1190008e1990005e10900006
:10381400ee1090000200400083804800026a2800f5
:10382400130020002ff407001017980021179800a8
:103834001e119000ae1190004000200001002000f5
:10384400800f5100818f590003003e0010002000ba
:10385400d0808800090037001e109000ae10900040
:103864000000400081804800a200200003002000e6
:103874001cf4070000007800d0808800b08080002d
:103884008000d100d080800000804000d08088007b
:10389400708180000000e0000200320020c0b3000c
:1038a40042f90700608180000000e000020032005d
:1038b40030c0b3003df90700851607000000eb0097
:1038c4000080fa00000006000200fa00f00f200059
:1038d400000f780023d0bf000004e0000200320093
:1038e400208180001100370004d0bf000004e000f4
:1038f40003003200800c2000808088001230ef002a
:103904000000eb00509e8800203e21008040eb0028
:10391400014878000000eb0040a08800004221002c
:103924008040eb00014878001e0078000080fa0017
:10393400000006000000fa000270ef000070ef00c3
:103944000080fa00000006000200fa007081800086
:103954000000e0000200320020c0b300e9f80700d4
:10396400608180000000e0000200320030c0b3003b
:10397400e4f80700c0002000000f78001ea0a0009b
:103984001eb0a0001e80ea0059f807000270ef0084
:103994002170ef000470ef000870ef000e70ef006c
:1039a4000c30ef000a30ef001630ef001430ef0057
:1039b4001830ef001a30ef001c30ef001e30ef001b
:1039c4000000eb00509e88000000eb00609e880021
:1039d400203e21008040eb00014878000000eb000d
:1039e40040a088000000eb0050a0880000422100a5
:1039f4008040eb00014878001030ef000370ef00c6
:103a04000170ef00fe70ef000080fa000000060075
:103a14000000fa00fe70ef000080fa0000000600cb
:103a24000a00fa006047980041079800ce00900011
:103a3400010f78006000b800100798002107980073
:103a440041032100914078006e40900080cf5000e7
:103a540003003200ee409000420321000149780047
:103a64004e009000e10f4000080032001e00780074
:103a74008000eb0010079800210798000e80e800f2
:103a84004200200041132000ce24070034d0bf00a0
:103a94000080fb008000eb001007980021079800cd
:103aa4001e009000ae0090001007980021079800b7
:103ab4000e80e8004200200001132000c12407000a
:103ac4004e0090000000e000050032006e409000bf
:103ad4000080fb00700060000000e00002003a007b
:103ae4002a70ef0019003700ce009000d0022000a9
:103af400808f50000a0032004e009000fa0f5000f0
:103b040007003200ce00900020032000808f500078
:103b14000300320023d0bf00e14f500003003a00fd
:103b240010c4b3002af0b700080037004e0090001c
:103b3400fb0f500003003a0020c4b3002af0b70082
:103b44000200370000c4b3002af0b7000080fa0076
:103b5400000006000800fa0040479800310798006a
:103b64000000eb00000f78000040eb0020479800b5
:103b74000080eb003080880010c0b30026f0b7004e
:103b84004e4090000080fb00700060000000e000e8
:103b94000600320010c0b3002047980034d0bf00a4
:103ba4000044a10034f0b7000d00370034d0bf004a
:103bb4000080fb00700060000000e000050032009f
:103bc4004e4090000080fb006f006000e10f500049
:103bd4001f023a0034d0bf006f40600034f0b700d9
:103be4004e4090006f406000404798004103210020
:103bf4009140780031479800be409000400020007a
:103c04000008dd0030479800be4090004e40900010
:103c140000c04000304798003e4090000080fb0008
:103c240041042000810f5000300032004104200084
:103c3400810f500010003c0021022000810f500031
:103c44001e00320021022000810f500003003c00be
:103c5400f20f5000190032002a0037004102200000
:103c6400810f50001a00320021042000810f5000ff
:103c7400120032002300370021082000810f500079
:103c84000e00320021082000810f500004003c0087
:103c940081042000810f5000140032001900370005
:103ca40041082000810f50001000320081082000dc
:103cb400810f50000d0032001200370020c0b30005
:103cc40063f807000080fb00000f78000d00370048
:103cd400e1022100c00221004c200700000f7800ff
:103ce4001e0078000000e00005003a0030d0bf005c
:103cf40057f807000080fb00000f78000100370030
:103d0400000000001e0078000000e00030013a00ce
:103d14002830ef003e4090000080fb006101b900b4
:103d2400f0fe2f00f1ff2f000200400083804800c6
:103d34007207200003002000820f5000838f580078
:103d440020013e0000060100000137007d0037001d
:103d540075003700170137001a01370019013700c1
:103d64001801370013013700160137001501370019
:103d74001401370013013700120137001101370015
:103d8400100137000f013700eb003700f000370057
:103d9400080137008e0037000a0137000901370097
:103da4000801370003013700060137000501370019
:103db4000401370003013700020137000101370015
:103dc40000013700ff0037005a003700f9003700c0
:103dd400fc003700f7003700fa003700f90037001d
:103de400f8003700f3003700f6003700f50037001d
:103df400f4003700f3003700f2003700f100370019
:103e0400f0003700ef003700c2003700b40037007d
:103e1400e8003700ce003700ea003700e900370039
:103e2400e800370087003700e6003700e500370078
:103e3400e4003700e3003700e2003700e100370018
:103e4400e0003700df003700de003700dd00370018
:103e5400dc003700db003700da003700d900370018
:103e6400d8003700d7003700d6003700d500370018
:103e7400d4003700d3003700d2003700d100370018
:103e8400d0003700cf003700ce003700cd00370018
:103e9400cc003700cb003700ca003700c900370018
:103ea400c8003700c7003700c6003700c500370018
:103eb400c4003700c3003700c2003700c100370018
:103ec400c0003700bf003700be003700bd00370018
:103ed400bc003700bb003700ba003700b900370018
:103ee400b8003700b7003700b6003700b500370018
:103ef400b4003700b3003700b2003700b100370018
:103f0400b0003700af003700790037006b0037008e
:103f1400a800370065003700aa003700a900370061
:103f2400a80037008a00370030012000000f780015
:103f3400d600370030012000000f7800b4fe0700df
:103f4400d20037002bf707004ed0bf000004e0007a
:103f540002003a0010052000000f78001e007800cf
:103f64000000e000b6003a00df180700000f7800f8
:103f74001e0078000000e00008003a002670ef0000
:103f8400891f0700000f78001e0078000000e00081
:103f940002003a0010c0b300c2f0b7001e0078005f
:103fa4000000e000a8003200f00f20009e0078001e
:103fb400808f5000a600320026d0bf000004e0002d
:103fc40001003a007c1f070013190700af003700f7
:103fd40013fa0700000f78001e0078000000e000cc
:103fe4000b003a002670ef00c0032100761f070083
:103ff400000f78001e0078000000e00004003a0082
:10400400e0818000e0f6070010c0b30001f0b700c3
:104014001e0078000000e0008f003200f00f200046
:104024009e007800808f50008d00320026d0bf00a3
:104034000004e00001003a00681f070042fe070088
:104044009200370020fe0700000f78001e00780061
:104054000000e00008003a002670ef00631f07002c
:10406400000f78001e0078000000e00002003a0013
:1040740010c0b30000f0b7001e0078000000e0009c
:1040840079003200f00f20009e007800808f5000ed
:104094007700320026d0bf000004e00001003a009f
:1040a400561f070023fe070078003700531f070040
:1040b40020fe07002670ef00740037004f1f070032
:1040c400000f78001bfe07002670ef001e0078002a
:1040d4000000e00068003a0020c4b30030479800b4
:1040e4003e1f070018fe07002670ef006700370028
:1040f400421f0700000f78000efe07002670ef0035
:104104001e0078000000e0005d003a0010c4b30017
:1041140030479800311f0700000f78000afe07009f
:104124002670ef001e0078000000e00056003a0000
:1041340010c2b30030479800b71807001e1f0700cd
:10414400000f780032fe07005000370030fe0700f1
:104154002e4090000004e000030032003e40900036
:104164000080fb000c1f070034d0bf000080fb0060
:104174006c0060000000e0000b00320070818000e1
:104184000000e0000300320020c0b30007f707007e
:1041940005003700608180000000e000020032006a
:1041a40030c0b30001f70700e00f2000000f7800d3
:1041b4003600370010012000000f780000000000d6
:1041c4003200370020012000000f78002f00370054
:1041d40034d0bf000080fb00e40f50000700320021
:1041e400e80f500003003200e20f500005003200d7
:1041f40026003700011f0700cefd0700f71e070049
:10420400d1fd07001e007800f60f500009003a00a7
:1042140081180700e81e07000040eb00b9f607000c
:1042240010c0b300b7f6070010c0b30034f0b700f5
:104234001600370020c0b30034f0b7001300370075
:104244000000000011003700000000000f003700dc
:10425400000000000d003700000000000b003700d4
:1042640000000000090037000000000007003700cc
:1042740000000000050037000000000003003700c4
:10428400000000000100370000000000f00f2000d3
:104294009e007800808f500027003a0010c0b300c1
:1042a40027f0b7003e4090000080fb00408188006a
:1042b4004081800041022000810f50000e00320036
:1042c40041022000810f500004003e0072005000a3
:1042d400e10f50000b003e00040037008104200071
:1042e400810f50000400320006003700007d2000da
:1042f4003080880006003700803222003080880039
:1043040003003700800c200030808800000000008b
:104314003380800032808000706626000090b900ef
:10432400c288de004f90de00008050000080510003
:1043340030808800470037004e4090008080fb00aa
:1043440034d0bf000080fb006f006000808f5000fd
:104354003a0032001e0078000000e00003003a003a
:104364003e0090000000e0001800320041032100ec
:10437400914078004e40900000c070000080fb0027
:10438400680060000000e0001000320000d0bf00b0
:104394000004e00002003200981e070065fd0700db
:1043a400708180000000e0000300320020c0b300f0
:1043b40054f6070005003700608180000000e0002b
:1043c4000200320030c0b3004ef607001e00780031
:1043d4000000e0000900320034d0bf00e84f500074
:1043e40002003a0040c0b30034f0b70034d0bf003c
:1043f4000044a00034f0b7000b0037003e009000ea
:104404000000e000050032003e019000020f780039
:104414004e4090000044a000404798004e41900058
:1044240041032100824878002770ef0034d0bf0098
:104434009e0078007afd0700060037002770ef0021
:1044440034d0bf008000eb0075fd07000100370089
:10445400000000000080fa00000006000600fa00d8
:1044640027d0bf000004e000f70032000000eb009a
:10447400200798000040eb00004f78000000eb009c
:1044840010079800308080000000e00058003a00d7
:10449400408180004400de00004f780040818000ad
:1044a40041022000810f5000190032004102200017
:1044b400810f500004003e0072005000e10f5000d4
:1044c400bf003e000400370081042000810f50002b
:1044d4001d003200d100370026d0bf000004e000e8
:1044e40001003a00341e0700cb17070023d0bf0099
:1044f4000004e000030032002181800011079800cd
:10450400c60037001000200010079800c3003700d1
:1045140026d0bf000004e00001003a002f1e07006f
:1045240009fd070023d0bf000004e00003003200af
:104534002181800011079800b80037001000200086
:1045440010079800b500370004d0bf000004e00055
:104554001200320008d0bf000004e00003003a005b
:10456400d0022000100798001800370002d0bf00c6
:104574000004e00006003a00708180000000e000c2
:1045840003003200b0012000100798000f0037002c
:10459400a0012000100798000c00370070818000f3
:1045a4000000e00003003200b00120001007980072
:1045b4000600370080c0b300004f78000000eb0015
:1045c4001007980010c0b30000f0b7001e00900060
:1045d4000000e0007c00320026d0bf000004e000b0
:1045e40001003a00051e0700d2fc07008b003700cb
:1045f4004081800041022000810f500021003200e0
:1046040041022000810f500004003e00720050005f
:10461400e10f500081003e000400370081042000b7
:10462400810f50002d0032007c00370026d0bf00df
:104634000004e000660032002670ef00da1d070077
:10464400200798002e0090000000e00006003a00c9
:1046540010c0b300c2f0b700408180000040780071
:104664006f4f60006d003700ae009000f00f200027
:10467400808f500058003200cf1d070066170700d6
:104684006600370026d0bf000004e000540032006a
:104694002670ef00c0032100cb1d070020079800ff
:1046a4002e0090000000e00005003a0010c0b300a6
:1046b40001f0b70040c0b300004f78005700370046
:1046c400ae009000f00f2000808f500046003200b2
:1046d400c21d07009cfc07005000370026d0bf0015
:1046e4000004e0004200320004d0bf000004e000f7
:1046f4001b003200808080000000e0003e00340097
:104704008180800090808000808f50003c003c00bd
:104714001030ef001230ef002670ef00b31d0700d9
:10472400200798002e0090000000e00005003a00e9
:1047340010c0b30000f0b70080c0b300004f780091
:1047440036003700ae009000f00f2000808f50003c
:104754002d003200a91d070076fc07002f0037004a
:10476400708180000000e0000300320002d0bf002e
:104774000004e000260032002670ef009b1d0700b5
:10478400200798002e0090000000e00005003a0089
:1047940010c0b30000f0b70080c0b300004f780031
:1047a4001e003700ae009000f00f2000808f5000f4
:1047b40019003200911d07005efc07001700370046
:1047c400000000001500370000000000130037004f
:1047d4000000000011003700000000000f00370047
:1047e400000000000d003700000000000b0037003f
:1047f4000000000009003700000000000700370037
:10480400000000000500370000000000030037002e
:104814000000000001003700000000001e40780086
:104824000004e000080032002770ef001e00900032
:104834000000e000010032001e44a0009e00900031
:104844001e40780076fc07000080fa000000060095
:104854000000fa0004d0bf000004e000420032006f
:1048640001d0bf000004e0003f003200b0808000af
:104874000000e00006003200a1808000b0808000cb
:10488400808f5000020039000870ef0009003700e3
:10489400a1808000b0808000808f50000300310030
:1048a400a08080000000e800a080880010c0b30051
:1048b40008f0b70008d0bf000004e0000c0032008c
:1048c400d08080000000e00009003200c180800038
:1048d400d0808000808f500004003100c0808000b0
:1048e4000000e800c0808800010037000870ef0075
:1048f40008d0bf000004e00017003200519e800081
:10490400e00e210030009000808f5000090031003b
:1049140010c0b3000ef0b700808080000000e000fb
:1049240011003400908080000000e800908088002e
:104934000d0037000ed0bf000004e0000a00320072
:104944000e70ef00808080000000e000060034005c
:104954001230ef00040037000ed0bf000004e00066
:10496400010032000e70ef000080fa000000060023
:104974000400fa00b08180000000e000280032004a
:104984006000b800008fbe000e00780042002000d6
:1049940001442000852007001e0078009e0090003e
:1049a400008fbe001e0178009e01900010002000c0
:1049b40001002000020278000301780080017800e1
:1049c4000100780003026200000061008000eb0037
:1049d400c000dd00000020000001be006120b8001e
:1049e4000001710081817100e00f5100e08f5900d6
:1049f4000b003a00708180000000e00008003200e3
:104a040000d0bf000004e00004003200b101200027
:104a140040c0b3004ffc0700150037000270ef00e0
:104a240004d0bf000004e0001100320000d0bf0039
:104a34000004e0000e00320008d0bf000004e000d3
:104a440004003a00c102200040c0b30041fc07004a
:104a5400070037000ed0bf000004e00004003a0055
:104a6400a101200040c0b3003afc07000000000090
:104a74000080fa00000006000600fa0020479800b3
:104a840021079800ae409000014f780027d0bf0066
:104a94000004e0005500320026d0bf000004e0000e
:104aa400090032002e0090000000e0006c0032008b
:104ab40010c0b30023f0b700ae009000218188003d
:104ac4000630ef00660037002e0090000000e00082
:104ad4002000320010c0b30023f0b700ae009000f5
:104ae400218188004081800041022000810f500014
:104af4000e00320041022000810f500004003e00ed
:104b040072005000e10f50000e003e000400370018
:104b140081042000810f5000070032000900370093
:104b2400a51c07003c16070006003700ab1c070055
:104b340085fb070003003700b01c07007dfb07005e
:104b440000000000408180004400de00004f780037
:104b54001d0037004081800041022000810f500079
:104b64000e00320041022000810f500004003e007c
:104b740072005000e10f500010003e0004003700a6
:104b840081042000810f5000090032000b0037001f
:104b940010c0b300c2f0b70008003700e081800005
:104ba400f9f3070010c0b30001f0b70003003700a9
:104bb40010c0b30000f0b700000000004081800086
:104bc400004078006f4f60002770ef002e009000c7
:104bd4000000e000010032001e44a000ae0090007e
:104be4001e4078008efb07001d0037002e00900049
:104bf4000000e0001500320010c0b30023f0b7003d
:104c0400ae0090002181880034d0bf000080fb00fa
:104c1400700060000000e000080032002e409000a8
:104c24000080fb00ef00600034d0bf000080fb0078
:104c34006f006000808f500009003d00ae009000be
:104c44002e409000c3fb07000500370023d0bf00af
:104c54000004e000020032002370ef002430ef0073
:104c64000080fa00000006000600fa006000b800a8
:104c740010079800210798000e80e80042002000e9
:104c840041002000c91f07001e009000ae009000e4
:104c940010079800210798001e019000ae019000b3
:104ca40000f02f00010020000202780003017800c8
:104cb40080017800010078000302620000006100b6
:104cc4008000eb00c000dd00000020000001be00f9
:104cd4006120b8000001710081817100481add0073
:104ce4004810de0000007200c818de0000407800a2
:104cf40030f0b7001e019000ae01900000002000cb
:104d0400f10f20000202780003017800800178008e
:104d14000100780003026200000061008000eb00e3
:104d2400c000dd00000020000001be006120b800ca
:104d340000017100818171004018de000100200033
:104d440000007800ca00dd00f0ff20000080400071
:104d540090818800a7f307000040eb00004f780023
:104d6400030037001e407800e6f307001e4fe800fa
:104d740030d0bf009e40780080cf5000f9ff39004a
:104d84001b1507002670ef002770ef000270ef007c
:104d94000070ef000170ef000370ef003630ef0099
:104da4001430ef001630ef001830ef001a30ef0027
:104db4000470ef002370ef002430ef003c30ef006c
:104dc4002e30ef002c30ef0010c0b30034f0b700e9
:104dd40034d0bf008000eb0011fb07002830ef0047
:104de4002a70ef002170ef00822207000000eb0020
:104df4003ff307000080fa00000006000c00fa00f0
:104e04000000eb00100798000000200011002000b3
:104e14002007980031079800c3170700c2d0bf00cd
:104e24000004e00008003200640047004200200053
:104e3400c18020005d1f07002e009000be0090007e
:104e44002007980031079800401f0700000f7800e2
:104e54001e00780061006000004078000004e0005b
:104e64001300320027d0bf000004e00010003a0015
:104e74006000b80040079800510798006800470098
:104e84004200200001122000481f07004e0090003d
:104e9400de00900010079800e0fe2f001e0f600057
:104ea4001e009000004078008000eb0029fb070002
:104eb4009e007800708060000000e0001200320064
:104ec40027d0bf000004e0000f003a0034d0bf0038
:104ed4000080fb00700060000000e0000a003a005f
:104ee40034d0bf000080fb000040a100e10f50005f
:104ef400050032001e40a10034d0bf006f406000a6
:104f04008000eb0013fb070027d0bf000004e00083
:104f14000100320051fd0700c2d0bf000004e000d0
:104f24007f0032002e019000be019000000020009e
:104f3400110020000202780003017800800178004b
:104f44000100780003026200000061008000eb00b1
:104f5400c000dd00000020000001be006120b80098
:104f64000001710081817100e00f5100e08f590050
:104f740004003a0034d0bf006f4060008000eb00b2
:104f8400f4fa0700002020001e0060000000e0008a
:104f9400080032003e30ef004030ef0051868000c0
:104fa400e003210042002000861f07001e90a1009c
:104fb400da1507002e019000be01900000002000c9
:104fc40021002000020278000301780080017800ab
:104fd4000100780003026200000061008000eb0021
:104fe400c000dd00000020000001be006120b80008
:104ff4000001710081817100e00f5100e08f5900c0
:1050040003003200c3d0bf000004e00017003200e8
:105014002e019000be01900000002000210020001d
:105024000202780003017800800178000100780012
:1050340003026200000061008000eb00c000dd009c
:10504400000020000001be006120b80000017100d2
:1050540081817100e00f5100e08f590028003a006f
:10506400c3d0bf000004e00025003200df150700b4
:10507400c3d0bf000004e000060032002e00900000
:10508400be0090000190a00020079800310798000e
:10509400130037002e019000be019000f0ff2f0096
:1050a400f1df2f000202780003017800800178000c
:1050b4000100780003026200000061008000eb0040
:1050c400c000dd00000020000001be006120b80027
:1050d4000001710081817100220798003307980054
:1050e4002e009000be009000200798003107980021
:1050f4006400470042002000c1802000311f0700e7
:10510400921e0700000f7800001020001e006000af
:105114000000e000020032001e80a1001416070007
:105124000080fa00000006000400fa00100798004e
:105134009e170700000f78000a0037001e00780051
:10514400a00090001e009000808f500002003a00e2
:105154001e007800070037001e00780090009000c1
:10516400010f78001e0078000000e000f3ff3a0011
:105174000000eb000080fa00000006001000fa00b6
:1051840040079800214f980062079800634f9800e9
:105194006e009000c000900000f0200000806000cd
:1051a4004800de00504798006e00900040009000d8
:1051b400604798006000b800008fbe006e48900001
:1051c4000004e0004f0032005e409000e74f5000c2
:1051d40002003a006000b800750037005e4090009d
:1051e400e84f500020003a006e00900070009000dc
:1051f40010007800604798006e0090005000900006
:1052040066004000900090006e4090000080fb001b
:105214008088b9008000eb00008fbe00720020007f
:10522400030020003e004100ae804900cd09dd00ae
:105234004300de0000807100c308de00008fbe0062
:105244002e4890000004e00004003a0022002000f0
:10525400030020001e0f41005e9749001e007800e5
:105264009e0090005200370010c0b30040479800e1
:105274000d0037006e009000d00090004e4090006a
:105284000080fb00e600b9000080400010009000a0
:105294008000eb001e0f40005e9748004e409000d7
:1052a4000040e80040479800ce4090006e409000d7
:1052b40080cf5000efff3600720020000300200072
:1052c4003e004100ae804900cd09dd004300de0010
:1052d40000807100c308de00008fbe002e489000dd
:1052e4000004e00004003a00220020000300200033
:1052f4001e0f41005e9749001e0078009e0090003a
:105304002b0037005e409000e74f500007003a0042
:105314006e00900050009000100090006700400064
:105324004300de008000eb00210037002e4890008f
:105334000004e00003003a001000200001002000f7
:105344001b0037005e409000e84f500008003a0010
:105354006e00900050009000660040001000900025
:10536400670040004300de008000eb0010003700bf
:10537400ee4090002e48900080cf50000200310093
:105384006000b8000a0037006e009000d000900062
:105394002e4890000080fb00e600b9000080400029
:1053a40010009000670040004300de008000eb0026
:1053b4000080fa00000006000600fa0010079800ba
:1053c400414798001e0090000080e80001c3b3002c
:1053d400014878001e009000104178004e40900073
:1053e4000080fb00c200de00b04721000008b800c6
:1053f4000100d10000407800804041001e00900070
:10540400014878004e4090000081fb00c210de008d
:10541400b04721000008b8008100d10040062000f8
:105424008088b90000005100004f78001e009000f1
:105434000001e8001e0090000000e80090417800a0
:105444009e80fb00d0cc2c000008b8004308de008e
:105454000040780000c04100004978001e00900020
:105464008081e8001e0090000080e800104278006f
:105474001e81fb00d0cc2c000010b8004308de00d5
:10548400ea00b900000051000040780000404200ea
:10549400804978000080fa00000006000e00fa003f
:1054a400404f98004e4890000080fb00010220000d
:1054b4000008dd0040079800bc160700000f7800c4
:1054c4000000eb0010079800300037001e00780041
:1054d400a0009000f0ff2000808f500028003600cc
:1054e400ce489000414798004e4090000004e000f0
:1054f4001d0032001e00780040009000204f9800ec
:105504000000eb00300798000f0037003e009000c9
:1055140000407800804078001e007800ff000700fb
:10552400a00090004e009000008060000000e000a9
:10553400020032000040eb00404798003e0090001b
:105544000000e800300798004e4090000004e0009e
:10555400050032002e4890008080fb003e00900041
:10556400808f5000e9ff31004e4090000004e000bd
:1055740003003a001e0090000000e80010079800a5
:105584001e00780090009000010f78001e00780043
:105594000000e000cdff3a001e0090000080fa00f9
:1055a400000006001400fa005007980061079800f4
:1055b40072079800030f9800140f98005e00900083
:1055c400010220000008dd00300798006e00900002
:1055d4009000780000002100808f50000c003a00f9
:1055e40072160700000f78001e0078000000e0002b
:1055f40009003a001e0890000000e0000600320096
:105604001e089000b1c1b3000148780002003700c1
:1056140021838000010f78001e0078000000e00064
:105624003b003200340037001e007800a0009000d8
:10563400f0ff2000808f50002c003600de00900028
:10564400110798001e0090000000e0001a003200cc
:105654001e00780040009000004f98000040eb00ce
:10566400404798000d003700ce4090001e0078009f
:10567400aa000700a00090003e0090000080600097
:105684000000e000020032000000eb001007980068
